{
  "contractName": "PiggyBank",
  "abi": [
    {
      "constant": true,
      "inputs": [
        {
          "name": "_betIndex",
          "type": "uint256"
        }
      ],
      "name": "getBet",
      "outputs": [
        {
          "name": "",
          "type": "uint256"
        },
        {
          "name": "",
          "type": "uint256"
        }
      ],
      "payable": false,
      "stateMutability": "view",
      "type": "function"
    },
    {
      "constant": true,
      "inputs": [],
      "name": "betsCount",
      "outputs": [
        {
          "name": "",
          "type": "uint8"
        }
      ],
      "payable": false,
      "stateMutability": "view",
      "type": "function"
    },
    {
      "constant": true,
      "inputs": [
        {
          "name": "",
          "type": "uint256"
        }
      ],
      "name": "bets",
      "outputs": [
        {
          "name": "minSum",
          "type": "uint256"
        },
        {
          "name": "cooldown",
          "type": "uint256"
        }
      ],
      "payable": false,
      "stateMutability": "view",
      "type": "function"
    },
    {
      "constant": true,
      "inputs": [],
      "name": "referrerDistribution",
      "outputs": [
        {
          "name": "",
          "type": "uint256"
        }
      ],
      "payable": false,
      "stateMutability": "view",
      "type": "function"
    },
    {
      "constant": true,
      "inputs": [],
      "name": "defaultRoundTime",
      "outputs": [
        {
          "name": "",
          "type": "uint256"
        }
      ],
      "payable": false,
      "stateMutability": "view",
      "type": "function"
    },
    {
      "constant": true,
      "inputs": [
        {
          "name": "_sum",
          "type": "uint256"
        }
      ],
      "name": "getBetIndex",
      "outputs": [
        {
          "name": "",
          "type": "uint256"
        }
      ],
      "payable": false,
      "stateMutability": "view",
      "type": "function"
    },
    {
      "constant": true,
      "inputs": [],
      "name": "ownerDistribution",
      "outputs": [
        {
          "name": "",
          "type": "uint256"
        }
      ],
      "payable": false,
      "stateMutability": "view",
      "type": "function"
    },
    {
      "constant": true,
      "inputs": [],
      "name": "betKillCount",
      "outputs": [
        {
          "name": "",
          "type": "uint8"
        }
      ],
      "payable": false,
      "stateMutability": "view",
      "type": "function"
    },
    {
      "constant": true,
      "inputs": [],
      "name": "currentRound",
      "outputs": [
        {
          "name": "",
          "type": "uint256"
        }
      ],
      "payable": false,
      "stateMutability": "view",
      "type": "function"
    },
    {
      "constant": true,
      "inputs": [
        {
          "name": "",
          "type": "uint256"
        }
      ],
      "name": "rounds",
      "outputs": [
        {
          "name": "endTime",
          "type": "uint256"
        },
        {
          "name": "cap",
          "type": "uint256"
        },
        {
          "name": "lastBetIndex",
          "type": "uint256"
        },
        {
          "name": "countBets",
          "type": "uint256"
        },
        {
          "name": "winner",
          "type": "address"
        },
        {
          "name": "isPaid",
          "type": "bool"
        }
      ],
      "payable": false,
      "stateMutability": "view",
      "type": "function"
    },
    {
      "constant": true,
      "inputs": [],
      "name": "owner",
      "outputs": [
        {
          "name": "",
          "type": "address"
        }
      ],
      "payable": false,
      "stateMutability": "view",
      "type": "function"
    },
    {
      "constant": true,
      "inputs": [
        {
          "name": "",
          "type": "address"
        }
      ],
      "name": "playerToReferrer",
      "outputs": [
        {
          "name": "",
          "type": "address"
        }
      ],
      "payable": false,
      "stateMutability": "view",
      "type": "function"
    },
    {
      "constant": true,
      "inputs": [
        {
          "name": "_index",
          "type": "uint256"
        }
      ],
      "name": "getMinBetIndexForKill",
      "outputs": [
        {
          "name": "",
          "type": "uint256"
        }
      ],
      "payable": false,
      "stateMutability": "view",
      "type": "function"
    },
    {
      "constant": true,
      "inputs": [],
      "name": "freeBetsCount",
      "outputs": [
        {
          "name": "",
          "type": "uint256"
        }
      ],
      "payable": false,
      "stateMutability": "view",
      "type": "function"
    },
    {
      "constant": false,
      "inputs": [
        {
          "name": "newOwner",
          "type": "address"
        }
      ],
      "name": "transferOwnership",
      "outputs": [],
      "payable": false,
      "stateMutability": "nonpayable",
      "type": "function"
    },
    {
      "inputs": [],
      "payable": false,
      "stateMutability": "nonpayable",
      "type": "constructor"
    },
    {
      "anonymous": false,
      "inputs": [
        {
          "indexed": false,
          "name": "_roundId",
          "type": "uint256"
        },
        {
          "indexed": false,
          "name": "_endTime",
          "type": "uint256"
        }
      ],
      "name": "NewRound",
      "type": "event"
    },
    {
      "anonymous": false,
      "inputs": [
        {
          "indexed": false,
          "name": "_roundId",
          "type": "uint256"
        }
      ],
      "name": "CloseRound",
      "type": "event"
    },
    {
      "anonymous": false,
      "inputs": [
        {
          "indexed": false,
          "name": "_roundId",
          "type": "uint256"
        },
        {
          "indexed": false,
          "name": "_sum",
          "type": "uint256"
        },
        {
          "indexed": false,
          "name": "_winner",
          "type": "address"
        },
        {
          "indexed": false,
          "name": "_endTime",
          "type": "uint256"
        },
        {
          "indexed": false,
          "name": "_cap",
          "type": "uint256"
        }
      ],
      "name": "UpdateRound",
      "type": "event"
    },
    {
      "anonymous": false,
      "inputs": [
        {
          "indexed": false,
          "name": "_roundId",
          "type": "uint256"
        },
        {
          "indexed": false,
          "name": "_winner",
          "type": "address"
        },
        {
          "indexed": false,
          "name": "_cap",
          "type": "uint256"
        }
      ],
      "name": "PayWinCap",
      "type": "event"
    },
    {
      "anonymous": false,
      "inputs": [
        {
          "indexed": true,
          "name": "previousOwner",
          "type": "address"
        },
        {
          "indexed": true,
          "name": "newOwner",
          "type": "address"
        }
      ],
      "name": "OwnershipTransferred",
      "type": "event"
    },
    {
      "constant": true,
      "inputs": [
        {
          "name": "_roundId",
          "type": "uint256"
        }
      ],
      "name": "getRoundInfo",
      "outputs": [
        {
          "name": "",
          "type": "uint256"
        },
        {
          "name": "",
          "type": "uint256"
        },
        {
          "name": "",
          "type": "uint256"
        },
        {
          "name": "",
          "type": "address"
        }
      ],
      "payable": false,
      "stateMutability": "view",
      "type": "function"
    },
    {
      "constant": false,
      "inputs": [
        {
          "name": "_roundId",
          "type": "uint256"
        }
      ],
      "name": "payWinCap",
      "outputs": [],
      "payable": false,
      "stateMutability": "nonpayable",
      "type": "function"
    },
    {
      "constant": false,
      "inputs": [
        {
          "name": "_referrer",
          "type": "address"
        }
      ],
      "name": "depositRef",
      "outputs": [],
      "payable": true,
      "stateMutability": "payable",
      "type": "function"
    },
    {
      "constant": false,
      "inputs": [],
      "name": "deposit",
      "outputs": [],
      "payable": true,
      "stateMutability": "payable",
      "type": "function"
    }
  ],
  "bytecode": "0x608060405234801561001057600080fd5b50336000806101000a81548173ffffffffffffffffffffffffffffffffffffffff021916908373ffffffffffffffffffffffffffffffffffffffff16021790555060016040805190810160405280662386f26fc100008152602001620151808152509080600181540180825580915050906001820390600052602060002090600202016000909192909190915060008201518160000155602082015181600101555050506001604080519081016040528066470de4df82000081526020016201437081525090806001815401808255809150509060018203906000526020600020906002020160009091929091909150600082015181600001556020820151816001015550505060016040805190810160405280666a94d74f43000081526020016201356081525090806001815401808255809150509060018203906000526020600020906002020160009091929091909150600082015181600001556020820151816001015550505060016040805190810160405280668e1bc9bf0400008152602001620127508152509080600181540180825580915050906001820390600052602060002090600202016000909192909190915060008201518160000155602082015181600101555050506001604080519081016040528066b1a2bc2ec500008152602001620119408152509080600181540180825580915050906001820390600052602060002090600202016000909192909190915060008201518160000155602082015181600101555050506001604080519081016040528066d529ae9e860000815260200162010b308152509080600181540180825580915050906001820390600052602060002090600202016000909192909190915060008201518160000155602082015181600101555050506001604080519081016040528066f8b0a10e470000815260200161fd208152509080600181540180825580915050906001820390600052602060002090600202016000909192909190915060008201518160000155602082015181600101555050506001604080519081016040528067011c37937e080000815260200161ef108152509080600181540180825580915050906001820390600052602060002090600202016000909192909190915060008201518160000155602082015181600101555050506001604080519081016040528067013fbe85edc90000815260200161e1008152509080600181540180825580915050906001820390600052602060002090600202016000909192909190915060008201518160000155602082015181600101555050506001604080519081016040528067016345785d8a0000815260200161d2f081525090806001815401808255809150509060018203906000526020600020906002020160009091929091909150600082015181600001556020820151816001015550505060016040805190810160405280670186cc6acd4b0000815260200161c4e0815250908060018154018082558091505090600182039060005260206000209060020201600090919290919091506000820151816000015560208201518160010155505050600160408051908101604052806701aa535d3d0c0000815260200161b6d0815250908060018154018082558091505090600182039060005260206000209060020201600090919290919091506000820151816000015560208201518160010155505050600160408051908101604052806701cdda4faccd0000815260200161a8c0815250908060018154018082558091505090600182039060005260206000209060020201600090919290919091506000820151816000015560208201518160010155505050600160408051908101604052806701f161421c8e00008152602001619ab081525090806001815401808255809150509060018203906000526020600020906002020160009091929091909150600082015181600001556020820151816001015550505060016040805190810160405280670214e8348c4f00008152602001618ca0815250908060018154018082558091505090600182039060005260206000209060020201600090919290919091506000820151816000015560208201518160010155505050600160408051908101604052806702386f26fc1000008152602001617e908152509080600181540180825580915050906001820390600052602060002090600202016000909192909190915060008201518160000155602082015181600101555050506001604080519081016040528067025bf6196bd1000081526020016170808152509080600181540180825580915050906001820390600052602060002090600202016000909192909190915060008201518160000155602082015181600101555050506001604080519081016040528067027f7d0bdb9200008152602001616270815250908060018154018082558091505090600182039060005260206000209060020201600090919290919091506000820151816000015560208201518160010155505050600160408051908101604052806702a303fe4b5300008152602001615460815250908060018154018082558091505090600182039060005260206000209060020201600090919290919091506000820151816000015560208201518160010155505050600160408051908101604052806702c68af0bb1400008152602001614650815250908060018154018082558091505090600182039060005260206000209060020201600090919290919091506000820151816000015560208201518160010155505050600160408051908101604052806702ea11e32ad5000081526020016138408152509080600181540180825580915050906001820390600052602060002090600202016000909192909190915060008201518160000155602082015181600101555050506001604080519081016040528067030d98d59a9600008152602001612a30815250908060018154018082558091505090600182039060005260206000209060020201600090919290919091506000820151816000015560208201518160010155505050600160408051908101604052806703782dace9d900008152602001611c20815250908060018154018082558091505090600182039060005260206000209060020201600090919290919091506000820151816000015560208201518160010155505050600160408051908101604052806706f05b59d3b200008152602001610e1081525090806001815401808255809150509060018203906000526020600020906002020160009091929091909150600082015181600001556020820151816001015550505060016040805190810160405280670de0b6b3a7640000815260200161096081525090806001815401808255809150509060018203906000526020600020906002020160009091929091909150600082015181600001556020820151816001015550505060016040805190810160405280674563918244f4000081526020016104b081525090806001815401808255809150509060018203906000526020600020906002020160009091929091909150600082015181600001556020820151816001015550505060016040805190810160405280678ac7230489e800008152602001610258815250908060018154018082558091505090600182039060005260206000209060020201600090919290919091506000820151816000015560208201518160010155505050600160408051908101604052806802b5e3af16b1880000815260200161012c8152509080600181540180825580915050906001820390600052602060002090600202016000909192909190915060008201518160000155602082015181600101555050506117f380610b346000396000f300608060405260043610610107576000357c0100000000000000000000000000000000000000000000000000000000900463ffffffff168063061e494f1461010c5780631a8ba72f1461015457806322af00fa14610185578063431f8a2d146101cd5780634d2d835d146101f857806368eaebb41461022357806369f873ec146102645780637d4da0ad1461028f57806388c3ffb0146102c05780638a19c8bc146103425780638c65c81f1461036d5780638da5cb5b14610401578063c313067b14610458578063d0e30db01461048e578063d5b502ba14610498578063d72f61bf1461051b578063dfe915921461055c578063e3bb97c414610589578063f2fde38b146105b4575b600080fd5b34801561011857600080fd5b50610137600480360381019080803590602001909291905050506105f7565b604051808381526020018281526020019250505060405180910390f35b34801561016057600080fd5b50610169610654565b604051808260ff1660ff16815260200191505060405180910390f35b34801561019157600080fd5b506101b060048036038101908080359060200190929190505050610659565b604051808381526020018281526020019250505060405180910390f35b3480156101d957600080fd5b506101e261068c565b6040518082815260200191505060405180910390f35b34801561020457600080fd5b5061020d610691565b6040518082815260200191505060405180910390f35b34801561022f57600080fd5b5061024e60048036038101908080359060200190929190505050610698565b6040518082815260200191505060405180910390f35b34801561027057600080fd5b50610279610763565b6040518082815260200191505060405180910390f35b34801561029b57600080fd5b506102a4610768565b604051808260ff1660ff16815260200191505060405180910390f35b3480156102cc57600080fd5b506102eb6004803603810190808035906020019092919050505061076d565b604051808581526020018481526020018381526020018273ffffffffffffffffffffffffffffffffffffffff1673ffffffffffffffffffffffffffffffffffffffff16815260200194505050505060405180910390f35b34801561034e57600080fd5b50610357610863565b6040518082815260200191505060405180910390f35b34801561037957600080fd5b5061039860048036038101908080359060200190929190505050610869565b604051808781526020018681526020018581526020018481526020018373ffffffffffffffffffffffffffffffffffffffff1673ffffffffffffffffffffffffffffffffffffffff16815260200182151515158152602001965050505050505060405180910390f35b34801561040d57600080fd5b506104166108e1565b604051808273ffffffffffffffffffffffffffffffffffffffff1673ffffffffffffffffffffffffffffffffffffffff16815260200191505060405180910390f35b61048c600480360381019080803573ffffffffffffffffffffffffffffffffffffffff169060200190929190505050610906565b005b61049661105b565b005b3480156104a457600080fd5b506104d9600480360381019080803573ffffffffffffffffffffffffffffffffffffffff169060200190929190505050611067565b604051808273ffffffffffffffffffffffffffffffffffffffff1673ffffffffffffffffffffffffffffffffffffffff16815260200191505060405180910390f35b34801561052757600080fd5b506105466004803603810190808035906020019092919050505061109a565b6040518082815260200191505060405180910390f35b34801561056857600080fd5b50610587600480360381019080803590602001909291905050506110c0565b005b34801561059557600080fd5b5061059e6113b6565b6040518082815260200191505060405180910390f35b3480156105c057600080fd5b506105f5600480360381019080803573ffffffffffffffffffffffffffffffffffffffff1690602001909291905050506113bb565b005b60008061060261175e565b60018481548110151561061157fe5b9060005260206000209060020201604080519081016040529081600082015481526020016001820154815250509050806000015181602001519250925050915091565b601c81565b60018181548110151561066857fe5b90600052602060002090600202016000915090508060000154908060010154905082565b600581565b6201518081565b6000806001601c0360ff1690505b6000811015156106ef576001818154811015156106bf57fe5b906000526020600020906002020160000154831015156106e15780915061075d565b8080600190039150506106a6565b6040517f08c379a000000000000000000000000000000000000000000000000000000000815260040180806020018281038252600d8152602001807f426574206e6f7420666f756e640000000000000000000000000000000000000081525060200191505060405180910390fd5b50919050565b600f81565b600281565b60008060008061077b611778565b60028681548110151561078a57fe5b906000526020600020906005020160c06040519081016040529081600082015481526020016001820154815260200160028201548152602001600382015481526020016004820160009054906101000a900473ffffffffffffffffffffffffffffffffffffffff1673ffffffffffffffffffffffffffffffffffffffff1673ffffffffffffffffffffffffffffffffffffffff1681526020016004820160149054906101000a900460ff161515151581525050905080600001518160200151826040015183608001519450945094509450509193509193565b60035481565b60028181548110151561087857fe5b90600052602060002090600502016000915090508060000154908060010154908060020154908060030154908060040160009054906101000a900473ffffffffffffffffffffffffffffffffffffffff16908060040160149054906101000a900460ff16905086565b6000809054906101000a900473ffffffffffffffffffffffffffffffffffffffff1681565b60008060008061091534610698565b935061091f611510565b6109276115b0565b610952600260035481548110151561093b57fe5b90600052602060002090600502016002015461109a565b84101515156109c9576040517f08c379a00000000000000000000000000000000000000000000000000000000081526004018080602001828103825260178152602001807f4d6f7265206265742076616c756520726571756972656400000000000000000081525060200191505060405180910390fd5b6001848154811015156109d857fe5b9060005260206000209060020201925060026003548154811015156109f957fe5b906000526020600020906005020160030160008154809291906001019190505550836002600354815481101515610a2c57fe5b906000526020600020906005020160020181905550610a5883600101544261171c90919063ffffffff16565b6002600354815481101515610a6957fe5b906000526020600020906005020160000181905550336002600354815481101515610a9057fe5b906000526020600020906005020160040160006101000a81548173ffffffffffffffffffffffffffffffffffffffff021916908373ffffffffffffffffffffffffffffffffffffffff160217905550600091506000905060056002600354815481101515610afa57fe5b9060005260206000209060050201600301541115610cf357600f91506000600460003373ffffffffffffffffffffffffffffffffffffffff1673ffffffffffffffffffffffffffffffffffffffff16815260200190815260200160002060009054906101000a900473ffffffffffffffffffffffffffffffffffffffff1673ffffffffffffffffffffffffffffffffffffffff16148015610bb2575060008573ffffffffffffffffffffffffffffffffffffffff1614155b8015610bea57503373ffffffffffffffffffffffffffffffffffffffff168573ffffffffffffffffffffffffffffffffffffffff1614155b15610c6e5784600460003373ffffffffffffffffffffffffffffffffffffffff1673ffffffffffffffffffffffffffffffffffffffff16815260200190815260200160002060006101000a81548173ffffffffffffffffffffffffffffffffffffffff021916908373ffffffffffffffffffffffffffffffffffffffff1602179055505b6000600460003373ffffffffffffffffffffffffffffffffffffffff1673ffffffffffffffffffffffffffffffffffffffff16815260200190815260200160002060009054906101000a900473ffffffffffffffffffffffffffffffffffffffff1673ffffffffffffffffffffffffffffffffffffffff16141515610cf257600590505b5b610d06818361173d90919063ffffffff16565b91506000821115610d88576000809054906101000a900473ffffffffffffffffffffffffffffffffffffffff1673ffffffffffffffffffffffffffffffffffffffff166108fc6064843402811515610d5a57fe5b049081150290604051600060405180830381858888f19350505050158015610d86573d6000803e3d6000fd5b505b600081118015610e0e57506000600460003373ffffffffffffffffffffffffffffffffffffffff1673ffffffffffffffffffffffffffffffffffffffff16815260200190815260200160002060009054906101000a900473ffffffffffffffffffffffffffffffffffffffff1673ffffffffffffffffffffffffffffffffffffffff1614155b15610ec857600460003373ffffffffffffffffffffffffffffffffffffffff1673ffffffffffffffffffffffffffffffffffffffff16815260200190815260200160002060009054906101000a900473ffffffffffffffffffffffffffffffffffffffff1673ffffffffffffffffffffffffffffffffffffffff166108fc6064833402811515610e9a57fe5b049081150290604051600060405180830381858888f19350505050158015610ec6573d6000803e3d6000fd5b505b610f1060648284016064033402811515610ede57fe5b046002600354815481101515610ef057fe5b90600052602060002090600502016001015461171c90919063ffffffff16565b6002600354815481101515610f2157fe5b9060005260206000209060050201600101819055507fbb4d90db9ba8fd2257ee14b541c924c2c02eeba2417c4517d0639f930f3c820a60035460648385016064033402811515610f6d57fe5b046002600354815481101515610f7f57fe5b906000526020600020906005020160040160009054906101000a900473ffffffffffffffffffffffffffffffffffffffff166002600354815481101515610fc257fe5b9060005260206000209060050201600001546002600354815481101515610fe557fe5b906000526020600020906005020160010154604051808681526020018581526020018473ffffffffffffffffffffffffffffffffffffffff1673ffffffffffffffffffffffffffffffffffffffff1681526020018381526020018281526020019550505050505060405180910390a15050505050565b6110656000610906565b565b60046020528060005260406000206000915054906101000a900473ffffffffffffffffffffffffffffffffffffffff1681565b6000600260ff168210156110b157600090506110bb565b600260ff16820390505b919050565b426002828154811015156110d057fe5b906000526020600020906005020160000154101515611157576040517f08c379a00000000000000000000000000000000000000000000000000000000081526004018080602001828103825260138152602001807f526f756e64206973206e6f7420636c6f7365640000000000000000000000000081525060200191505060405180910390fd5b6000151560028281548110151561116a57fe5b906000526020600020906005020160040160149054906101000a900460ff161515141515611200576040517f08c379a000000000000000000000000000000000000000000000000000000000815260040180806020018281038252600d8152602001807f526f756e6420697320706169640000000000000000000000000000000000000081525060200191505060405180910390fd5b600160028281548110151561121157fe5b906000526020600020906005020160040160146101000a81548160ff02191690831515021790555060028181548110151561124857fe5b906000526020600020906005020160040160009054906101000a900473ffffffffffffffffffffffffffffffffffffffff1673ffffffffffffffffffffffffffffffffffffffff166108fc6002838154811015156112a257fe5b9060005260206000209060050201600101549081150290604051600060405180830381858888f193505050501580156112df573d6000803e3d6000fd5b507fcd723909043eee24da91bf00ad16a91937b90e48faeea8a843ee5e6256ef4e708160028381548110151561131157fe5b906000526020600020906005020160040160009054906101000a900473ffffffffffffffffffffffffffffffffffffffff1660028481548110151561135257fe5b906000526020600020906005020160010154604051808481526020018373ffffffffffffffffffffffffffffffffffffffff1673ffffffffffffffffffffffffffffffffffffffff168152602001828152602001935050505060405180910390a150565b600581565b6000809054906101000a900473ffffffffffffffffffffffffffffffffffffffff1673ffffffffffffffffffffffffffffffffffffffff163373ffffffffffffffffffffffffffffffffffffffff1614151561141657600080fd5b600073ffffffffffffffffffffffffffffffffffffffff168173ffffffffffffffffffffffffffffffffffffffff161415151561145257600080fd5b8073ffffffffffffffffffffffffffffffffffffffff166000809054906101000a900473ffffffffffffffffffffffffffffffffffffffff1673ffffffffffffffffffffffffffffffffffffffff167f8be0079c531659141344cd1fd0a4f28419497f9722a3daafe3b4186f6b6457e060405160405180910390a3806000806101000a81548173ffffffffffffffffffffffffffffffffffffffff021916908373ffffffffffffffffffffffffffffffffffffffff16021790555050565b600354600280549050111515611525576115ae565b600260035481548110151561153657fe5b90600052602060002090600502016000015442111515611555576115ae565b61156b600160035461171c90919063ffffffff16565b6003819055507fd1014bd15f738385a79c60003df93dec366bb7fe82c8796e4e5167d26f67005a6001600354036040518082815260200191505060405180910390a15b565b600060035460028054905011156115c657611719565b6001600260c0604051908101604052806201518042018152602001600081526020016000815260200160008152602001600073ffffffffffffffffffffffffffffffffffffffff16815260200160001515815250908060018154018082558091505090600182039060005260206000209060050201600090919290919091506000820151816000015560208201518160010155604082015181600201556060820151816003015560808201518160040160006101000a81548173ffffffffffffffffffffffffffffffffffffffff021916908373ffffffffffffffffffffffffffffffffffffffff16021790555060a08201518160040160146101000a81548160ff02191690831515021790555050500390507f1237ad121dfe1e3abc3b4254161693eb4add51b458114b8c15502bea94a6b02b8142604051808381526020018281526020019250505060405180910390a15b50565b600080828401905083811015151561173357600080fd5b8091505092915050565b60008083831115151561174f57600080fd5b82840390508091505092915050565b604080519081016040528060008152602001600081525090565b60c06040519081016040528060008152602001600081526020016000815260200160008152602001600073ffffffffffffffffffffffffffffffffffffffff16815260200160001515815250905600a165627a7a72305820b7353dbb273053db5fbf5ebf8552396a22ceab6aaefeda8e9427c13a1f25b1d50029",
  "source": "pragma solidity ^0.4.24;\n\n/*\n*\n*__/\\\\\\\\\\\\\\\\\\\\\\\\\\__________________________________________________/\\\\\\\\\\\\\\\\\\\\\\\\\\______________________________________________\n* _\\/\\\\\\/////////\\\\\\_______________________________________________\\/\\\\\\/////////\\\\\\_______________________________/\\\\\\_________\n*  _\\/\\\\\\_______\\/\\\\\\__/\\\\\\___/\\\\\\\\\\\\\\\\____/\\\\\\\\\\\\\\\\_____/\\\\\\__/\\\\\\_\\/\\\\\\_______\\/\\\\\\______________________________\\/\\\\\\_________\n*   _\\/\\\\\\\\\\\\\\\\\\\\\\\\\\/__\\///___/\\\\\\////\\\\\\__/\\\\\\////\\\\\\___\\//\\\\\\/\\\\\\__\\/\\\\\\\\\\\\\\\\\\\\\\\\\\\\___/\\\\\\\\\\\\\\\\\\_____/\\\\/\\\\\\\\\\\\___\\/\\\\\\\\\\\\\\\\____\n*    _\\/\\\\\\/////////_____/\\\\\\_\\//\\\\\\\\\\\\\\\\\\_\\//\\\\\\\\\\\\\\\\\\____\\//\\\\\\\\\\___\\/\\\\\\/////////\\\\\\_\\////////\\\\\\___\\/\\\\\\////\\\\\\__\\/\\\\\\////\\\\\\__\n*     _\\/\\\\\\_____________\\/\\\\\\__\\///////\\\\\\__\\///////\\\\\\_____\\//\\\\\\____\\/\\\\\\_______\\/\\\\\\___/\\\\\\\\\\\\\\\\\\\\__\\/\\\\\\__\\//\\\\\\_\\/\\\\\\\\\\\\\\\\/___\n*      _\\/\\\\\\_____________\\/\\\\\\__/\\\\_____\\\\\\__/\\\\_____\\\\\\__/\\\\_/\\\\\\_____\\/\\\\\\_______\\/\\\\\\__/\\\\\\/////\\\\\\__\\/\\\\\\___\\/\\\\\\_\\/\\\\\\///\\\\\\___\n*       _\\/\\\\\\_____________\\/\\\\\\_\\//\\\\\\\\\\\\\\\\__\\//\\\\\\\\\\\\\\\\__\\//\\\\\\\\/______\\/\\\\\\\\\\\\\\\\\\\\\\\\\\/__\\//\\\\\\\\\\\\\\\\/\\\\_\\/\\\\\\___\\/\\\\\\_\\/\\\\\\_\\///\\\\\\_\n*        _\\///______________\\///___\\////////____\\////////____\\////________\\/////////////_____\\////////\\//__\\///____\\///__\\///____\\///__\n*/\n\nimport \"./Ownable.sol\";\nimport \"./SafeMath.sol\";\n\ncontract Betting {\n\n    uint8 public constant betsCount = 28;\n    uint8 public constant betKillCount = 2;\n    struct Bet {\n        uint256 minSum;     // min value eth for choose this bet\n        uint256 cooldown;   // time for reset timer\n    }\n\n    Bet[] public bets;\n\n    constructor() public {\n        bets.push(Bet(0.01 ether, 86400));  // 24 hour\n        bets.push(Bet(0.02 ether, 82800));  // 23 hour\n        bets.push(Bet(0.03 ether, 79200));  // 22 hour\n        bets.push(Bet(0.04 ether, 75600));  // 21 hour\n        bets.push(Bet(0.05 ether, 72000));  // 20 hour\n        bets.push(Bet(0.06 ether, 68400));  // 19 hour\n        bets.push(Bet(0.07 ether, 64800));  // 18 hour\n        bets.push(Bet(0.08 ether, 61200));  // 17 hour\n        bets.push(Bet(0.09 ether, 57600));  // 16 hour\n        bets.push(Bet(0.1 ether, 54000));   // 15 hour\n        bets.push(Bet(0.11 ether, 50400));  // 14 hour\n        bets.push(Bet(0.12 ether, 46800));  // 13 hour\n        bets.push(Bet(0.13 ether, 43200));  // 12 hour\n        bets.push(Bet(0.14 ether, 39600));  // 11 hour\n        bets.push(Bet(0.15 ether, 36000));  // 10 hour\n        bets.push(Bet(0.16 ether, 32400));  // 9 hour\n        bets.push(Bet(0.17 ether, 28800));  // 8 hour\n        bets.push(Bet(0.18 ether, 25200));  // 7 hour\n        bets.push(Bet(0.19 ether, 21600));  // 6 hour\n        bets.push(Bet(0.2 ether, 18000));   // 5 hour\n        bets.push(Bet(0.21 ether, 14400));  // 4 hour\n        bets.push(Bet(0.22 ether, 10800));  // 3 hour\n        bets.push(Bet(0.25 ether, 7200));   // 2 hour\n        bets.push(Bet(0.5 ether, 3600));    // 1 hour\n        bets.push(Bet(1 ether, 2400));      // 40 min\n        bets.push(Bet(5 ether, 1200));      // 20 min\n        bets.push(Bet(10 ether, 600));      // 10 min\n        bets.push(Bet(50 ether, 300));      // 5 min\n    }\n\n    function getBet(uint256 _betIndex) public view returns(uint256, uint256) {\n        Bet memory bet = bets[_betIndex];\n        return (bet.minSum, bet.cooldown);\n    }\n\n    function getBetIndex(uint256 _sum) public view returns(uint256) {\n        for (uint256 i = betsCount - 1; i >= 0; i--) {\n            if (_sum >= bets[i].minSum) return i;\n        }\n\n        revert('Bet not found');\n    }\n\n    function getMinBetIndexForKill(uint256 _index) public view returns(uint256) {\n        if (_index < betKillCount) return 0;\n\n        return _index - betKillCount;\n    }\n\n}\n\ncontract PiggyBank is Ownable, Betting {\n\n    using SafeMath for uint256;\n\n    event NewRound(uint256 _roundId, uint256 _endTime);\n    event CloseRound(uint256 _roundId);\n    event UpdateRound(uint256 _roundId, uint256 _sum, address _winner, uint256 _endTime, uint256 _cap);\n    event PayWinCap(uint256 _roundId, address _winner, uint256 _cap);\n\n    struct Round {\n        uint256 endTime;\n        uint256 cap;\n        uint256 lastBetIndex;\n        uint256 countBets;\n        address winner;\n        bool isPaid;\n    }\n\n    Round[] public rounds;\n    uint256 public currentRound;\n    uint256 public constant defaultRoundTime = 86400;   // 24 hours\n    uint256 public constant freeBetsCount = 5;\n    uint256 public constant ownerDistribution = 15;     // 15%\n    uint256 public constant referrerDistribution = 5;   // 5%\n    mapping (address => address) public playerToReferrer;\n\n    constructor() public {\n\n    }\n\n    function getRoundInfo(uint256 _roundId) public view returns(uint256, uint256, uint256, address) {\n        Round memory round = rounds[_roundId];\n        return (round.endTime, round.cap, round.lastBetIndex, round.winner);\n    }\n\n    function payWinCap(uint256 _roundId) {\n        require(rounds[_roundId].endTime < now, 'Round is not closed');\n        require(rounds[_roundId].isPaid == false, 'Round is paid');\n\n        rounds[_roundId].isPaid = true;\n        rounds[_roundId].winner.transfer(rounds[_roundId].cap);\n\n        emit PayWinCap(_roundId, rounds[_roundId].winner, rounds[_roundId].cap);\n    }\n\n    function _startNewRoundIfNeeded() private {\n        if (rounds.length > currentRound) return;\n\n        uint256 roundId = rounds.push(Round(now + defaultRoundTime, 0, 0, 0, 0x0, false)) - 1;\n        emit NewRound(roundId, now);\n    }\n\n    function _closeRoundIfNeeded() private {\n        if (rounds.length <= currentRound) return;\n        if (now <= rounds[currentRound].endTime) return;\n\n        currentRound = currentRound.add(1);\n        emit CloseRound(currentRound - 1);\n    }\n\n    function depositRef(address _referrer) payable public {\n        uint256 betIndex = getBetIndex(msg.value);\n        // close if needed\n        _closeRoundIfNeeded();\n\n        // for new rounds\n        _startNewRoundIfNeeded();\n\n        require(betIndex >= getMinBetIndexForKill(rounds[currentRound].lastBetIndex), \"More bet value required\");\n        Bet storage bet = bets[betIndex];\n\n        // work with actual\n        rounds[currentRound].countBets++;\n        rounds[currentRound].lastBetIndex = betIndex;\n        rounds[currentRound].endTime = now.add(bet.cooldown);\n        rounds[currentRound].winner = msg.sender;\n\n        // distribution\n        uint256 ownerPercent = 0;\n        uint256 referrerPercent = 0;\n        if (rounds[currentRound].countBets > freeBetsCount) {\n            ownerPercent = ownerDistribution;\n            if (playerToReferrer[msg.sender] == 0x0 && _referrer != 0x0 && _referrer != msg.sender) playerToReferrer[msg.sender] = _referrer;\n            if (playerToReferrer[msg.sender] != 0x0) referrerPercent = referrerDistribution;\n        }\n\n        ownerPercent = ownerPercent.sub(referrerPercent);\n        if (ownerPercent > 0) owner.transfer(msg.value * ownerPercent / 100);\n        if (referrerPercent > 0 && playerToReferrer[msg.sender] != 0x0) playerToReferrer[msg.sender].transfer(msg.value * referrerPercent / 100);\n\n        rounds[currentRound].cap = rounds[currentRound].cap.add(msg.value * (100 - (ownerPercent + referrerPercent)) / 100);\n\n        emit UpdateRound(currentRound, msg.value * (100 - (ownerPercent + referrerPercent)) / 100, rounds[currentRound].winner, rounds[currentRound].endTime, rounds[currentRound].cap);\n    }\n\n    function deposit() payable public {\n        depositRef(0x0);\n    }\n\n}\n",
  "sourcePath": "/Users/alexey/Projects/DApps/PiggyBank/contracts/PiggyBank.sol",
  "compiler": {
    "name": "solc",
    "version": "0.4.24+commit.e67f0147.Emscripten.clang"
  },
  "schemaVersion": "2.0.1",
  "updatedAt": "2018-12-24T16:01:26.249Z"
}